{
  "_format": "hh-sol-artifact-1",
  "contractName": "CertificateRegistry",
  "sourceName": "contracts/CertificateRegistry.sol",
  "abi": [
    {
      "inputs": [],
      "stateMutability": "nonpayable",
      "type": "constructor"
    },
    {
      "anonymous": false,
      "inputs": [
        {
          "indexed": true,
          "internalType": "string",
          "name": "certificateId",
          "type": "string"
        },
        {
          "indexed": false,
          "internalType": "string",
          "name": "studentName",
          "type": "string"
        },
        {
          "indexed": false,
          "internalType": "string",
          "name": "domainName",
          "type": "string"
        },
        {
          "indexed": false,
          "internalType": "string",
          "name": "issueDate",
          "type": "string"
        },
        {
          "indexed": false,
          "internalType": "string",
          "name": "certificateHash",
          "type": "string"
        },
        {
          "indexed": false,
          "internalType": "string",
          "name": "verificationUrl",
          "type": "string"
        }
      ],
      "name": "CertificateRegistered",
      "type": "event"
    },
    {
      "anonymous": false,
      "inputs": [
        {
          "indexed": true,
          "internalType": "string",
          "name": "certificateId",
          "type": "string"
        }
      ],
      "name": "CertificateRevoked",
      "type": "event"
    },
    {
      "inputs": [
        {
          "internalType": "string",
          "name": "_certificateId",
          "type": "string"
        }
      ],
      "name": "getCertificate",
      "outputs": [
        {
          "internalType": "string",
          "name": "certificateId",
          "type": "string"
        },
        {
          "internalType": "string",
          "name": "studentName",
          "type": "string"
        },
        {
          "internalType": "string",
          "name": "domainName",
          "type": "string"
        },
        {
          "internalType": "string",
          "name": "issueDate",
          "type": "string"
        },
        {
          "internalType": "string",
          "name": "certificateHash",
          "type": "string"
        },
        {
          "internalType": "string",
          "name": "verificationUrl",
          "type": "string"
        },
        {
          "internalType": "bool",
          "name": "isRevoked",
          "type": "bool"
        },
        {
          "internalType": "bool",
          "name": "exists",
          "type": "bool"
        }
      ],
      "stateMutability": "view",
      "type": "function"
    },
    {
      "inputs": [],
      "name": "owner",
      "outputs": [
        {
          "internalType": "address",
          "name": "",
          "type": "address"
        }
      ],
      "stateMutability": "view",
      "type": "function"
    },
    {
      "inputs": [
        {
          "internalType": "string",
          "name": "_certificateId",
          "type": "string"
        },
        {
          "internalType": "string",
          "name": "_studentName",
          "type": "string"
        },
        {
          "internalType": "string",
          "name": "_domainName",
          "type": "string"
        },
        {
          "internalType": "string",
          "name": "_issueDate",
          "type": "string"
        },
        {
          "internalType": "string",
          "name": "_certificateHash",
          "type": "string"
        },
        {
          "internalType": "string",
          "name": "_verificationUrl",
          "type": "string"
        }
      ],
      "name": "registerCertificate",
      "outputs": [],
      "stateMutability": "nonpayable",
      "type": "function"
    },
    {
      "inputs": [
        {
          "internalType": "string",
          "name": "_certificateId",
          "type": "string"
        }
      ],
      "name": "revokeCertificate",
      "outputs": [],
      "stateMutability": "nonpayable",
      "type": "function"
    }
  ],
  "bytecode": "0x608060405234801561001057600080fd5b50336000806101000a81548173ffffffffffffffffffffffffffffffffffffffff021916908373ffffffffffffffffffffffffffffffffffffffff1602179055506113bd806100606000396000f3fe608060405234801561001057600080fd5b506004361061004c5760003560e01c8063142e1542146100515780638da5cb5b1461006d578063d3b229b31461008b578063ed0f2e75146100a7575b600080fd5b61006b60048036038101906100669190610ae4565b6100de565b005b6100756102c7565b6040516100829190610b6e565b60405180910390f35b6100a560048036038101906100a09190610b89565b6102eb565b005b6100c160048036038101906100bc9190610ae4565b61056a565b6040516100d5989796959493929190610d58565b60405180910390f35b60008054906101000a900473ffffffffffffffffffffffffffffffffffffffff1673ffffffffffffffffffffffffffffffffffffffff163373ffffffffffffffffffffffffffffffffffffffff161461016c576040517f08c379a000000000000000000000000000000000000000000000000000000000815260040161016390610e72565b60405180910390fd5b60018160405161017c9190610ece565b908152602001604051809103902060060160019054906101000a900460ff166101da576040517f08c379a00000000000000000000000000000000000000000000000000000000081526004016101d190610f31565b60405180910390fd5b6001816040516101ea9190610ece565b908152602001604051809103902060060160009054906101000a900460ff1615610249576040517f08c379a000000000000000000000000000000000000000000000000000000000815260040161024090610f9d565b60405180910390fd5b6001808260405161025a9190610ece565b908152602001604051809103902060060160006101000a81548160ff021916908315150217905550806040516102909190610ece565b60405180910390207f266095b5af7e2323760fef151f1d78896740cd2cc1b73a6357ff9e4c3fdae74060405160405180910390a250565b60008054906101000a900473ffffffffffffffffffffffffffffffffffffffff1681565b60008054906101000a900473ffffffffffffffffffffffffffffffffffffffff1673ffffffffffffffffffffffffffffffffffffffff163373ffffffffffffffffffffffffffffffffffffffff1614610379576040517f08c379a000000000000000000000000000000000000000000000000000000000815260040161037090610e72565b60405180910390fd5b6001866040516103899190610ece565b908152602001604051809103902060060160019054906101000a900460ff16156103e8576040517f08c379a00000000000000000000000000000000000000000000000000000000081526004016103df90611009565b60405180910390fd5b604051806101000160405280878152602001868152602001858152602001848152602001838152602001828152602001600015158152602001600115158152506001876040516104389190610ece565b9081526020016040518091039020600082015181600001908161045b919061123f565b506020820151816001019081610471919061123f565b506040820151816002019081610487919061123f565b50606082015181600301908161049d919061123f565b5060808201518160040190816104b3919061123f565b5060a08201518160050190816104c9919061123f565b5060c08201518160060160006101000a81548160ff02191690831515021790555060e08201518160060160016101000a81548160ff0219169083151502179055509050508560405161051b9190610ece565b60405180910390207fdbd7364f2db733210e9c2a07e2cf8f158c48c9b74b5534f6297fa38b1b46c8e8868686868660405161055a959493929190611311565b60405180910390a2505050505050565b606080606080606080600080600060018a6040516105889190610ece565b9081526020016040518091039020604051806101000160405290816000820180546105b290611058565b80601f01602080910402602001604051908101604052809291908181526020018280546105de90611058565b801561062b5780601f106106005761010080835404028352916020019161062b565b820191906000526020600020905b81548152906001019060200180831161060e57829003601f168201915b5050505050815260200160018201805461064490611058565b80601f016020809104026020016040519081016040528092919081815260200182805461067090611058565b80156106bd5780601f10610692576101008083540402835291602001916106bd565b820191906000526020600020905b8154815290600101906020018083116106a057829003601f168201915b505050505081526020016002820180546106d690611058565b80601f016020809104026020016040519081016040528092919081815260200182805461070290611058565b801561074f5780601f106107245761010080835404028352916020019161074f565b820191906000526020600020905b81548152906001019060200180831161073257829003601f168201915b5050505050815260200160038201805461076890611058565b80601f016020809104026020016040519081016040528092919081815260200182805461079490611058565b80156107e15780601f106107b6576101008083540402835291602001916107e1565b820191906000526020600020905b8154815290600101906020018083116107c457829003601f168201915b505050505081526020016004820180546107fa90611058565b80601f016020809104026020016040519081016040528092919081815260200182805461082690611058565b80156108735780601f1061084857610100808354040283529160200191610873565b820191906000526020600020905b81548152906001019060200180831161085657829003601f168201915b5050505050815260200160058201805461088c90611058565b80601f01602080910402602001604051908101604052809291908181526020018280546108b890611058565b80156109055780601f106108da57610100808354040283529160200191610905565b820191906000526020600020905b8154815290600101906020018083116108e857829003601f168201915b505050505081526020016006820160009054906101000a900460ff161515151581526020016006820160019054906101000a900460ff1615151515815250509050806000015181602001518260400151836060015184608001518560a001518660c001518760e001519850985098509850985098509850985050919395975091939597565b6000604051905090565b600080fd5b600080fd5b600080fd5b600080fd5b6000601f19601f8301169050919050565b7f4e487b7100000000000000000000000000000000000000000000000000000000600052604160045260246000fd5b6109f1826109a8565b810181811067ffffffffffffffff82111715610a1057610a0f6109b9565b5b80604052505050565b6000610a2361098a565b9050610a2f82826109e8565b919050565b600067ffffffffffffffff821115610a4f57610a4e6109b9565b5b610a58826109a8565b9050602081019050919050565b82818337600083830152505050565b6000610a87610a8284610a34565b610a19565b905082815260208101848484011115610aa357610aa26109a3565b5b610aae848285610a65565b509392505050565b600082601f830112610acb57610aca61099e565b5b8135610adb848260208601610a74565b91505092915050565b600060208284031215610afa57610af9610994565b5b600082013567ffffffffffffffff811115610b1857610b17610999565b5b610b2484828501610ab6565b91505092915050565b600073ffffffffffffffffffffffffffffffffffffffff82169050919050565b6000610b5882610b2d565b9050919050565b610b6881610b4d565b82525050565b6000602082019050610b836000830184610b5f565b92915050565b60008060008060008060c08789031215610ba657610ba5610994565b5b600087013567ffffffffffffffff811115610bc457610bc3610999565b5b610bd089828a01610ab6565b965050602087013567ffffffffffffffff811115610bf157610bf0610999565b5b610bfd89828a01610ab6565b955050604087013567ffffffffffffffff811115610c1e57610c1d610999565b5b610c2a89828a01610ab6565b945050606087013567ffffffffffffffff811115610c4b57610c4a610999565b5b610c5789828a01610ab6565b935050608087013567ffffffffffffffff811115610c7857610c77610999565b5b610c8489828a01610ab6565b92505060a087013567ffffffffffffffff811115610ca557610ca4610999565b5b610cb189828a01610ab6565b9150509295509295509295565b600081519050919050565b600082825260208201905092915050565b60005b83811015610cf8578082015181840152602081019050610cdd565b60008484015250505050565b6000610d0f82610cbe565b610d198185610cc9565b9350610d29818560208601610cda565b610d32816109a8565b840191505092915050565b60008115159050919050565b610d5281610d3d565b82525050565b6000610100820190508181036000830152610d73818b610d04565b90508181036020830152610d87818a610d04565b90508181036040830152610d9b8189610d04565b90508181036060830152610daf8188610d04565b90508181036080830152610dc38187610d04565b905081810360a0830152610dd78186610d04565b9050610de660c0830185610d49565b610df360e0830184610d49565b9998505050505050505050565b7f4f6e6c79206f776e65722063616e20706572666f726d2074686973206163746960008201527f6f6e000000000000000000000000000000000000000000000000000000000000602082015250565b6000610e5c602283610cc9565b9150610e6782610e00565b604082019050919050565b60006020820190508181036000830152610e8b81610e4f565b9050919050565b600081905092915050565b6000610ea882610cbe565b610eb28185610e92565b9350610ec2818560208601610cda565b80840191505092915050565b6000610eda8284610e9d565b915081905092915050565b7f436572746966696361746520646f6573206e6f74206578697374000000000000600082015250565b6000610f1b601a83610cc9565b9150610f2682610ee5565b602082019050919050565b60006020820190508181036000830152610f4a81610f0e565b9050919050565b7f436572746966696361746520697320616c7265616479207265766f6b65640000600082015250565b6000610f87601e83610cc9565b9150610f9282610f51565b602082019050919050565b60006020820190508181036000830152610fb681610f7a565b9050919050565b7f436572746966696361746520616c726561647920726567697374657265640000600082015250565b6000610ff3601e83610cc9565b9150610ffe82610fbd565b602082019050919050565b6000602082019050818103600083015261102281610fe6565b9050919050565b7f4e487b7100000000000000000000000000000000000000000000000000000000600052602260045260246000fd5b6000600282049050600182168061107057607f821691505b60208210810361108357611082611029565b5b50919050565b60008190508160005260206000209050919050565b60006020601f8301049050919050565b600082821b905092915050565b6000600883026110eb7fffffffffffffffffffffffffffffffffffffffffffffffffffffffffffffffff826110ae565b6110f586836110ae565b95508019841693508086168417925050509392505050565b6000819050919050565b6000819050919050565b600061113c6111376111328461110d565b611117565b61110d565b9050919050565b6000819050919050565b61115683611121565b61116a61116282611143565b8484546110bb565b825550505050565b600090565b61117f611172565b61118a81848461114d565b505050565b5b818110156111ae576111a3600082611177565b600181019050611190565b5050565b601f8211156111f3576111c481611089565b6111cd8461109e565b810160208510156111dc578190505b6111f06111e88561109e565b83018261118f565b50505b505050565b600082821c905092915050565b6000611216600019846008026111f8565b1980831691505092915050565b600061122f8383611205565b9150826002028217905092915050565b61124882610cbe565b67ffffffffffffffff811115611261576112606109b9565b5b61126b8254611058565b6112768282856111b2565b600060209050601f8311600181146112a95760008415611297578287015190505b6112a18582611223565b865550611309565b601f1984166112b786611089565b60005b828110156112df578489015182556001820191506020850194506020810190506112ba565b868310156112fc57848901516112f8601f891682611205565b8355505b6001600288020188555050505b505050505050565b600060a082019050818103600083015261132b8188610d04565b9050818103602083015261133f8187610d04565b905081810360408301526113538186610d04565b905081810360608301526113678185610d04565b9050818103608083015261137b8184610d04565b9050969550505050505056fea2646970667358221220c89e7c7711f7c1e285f6e6e1c75f913ece452947910b53e52d70731d3ff1a8e964736f6c63430008130033",
  "linkReferences": {},
  "deployedLinkReferences": {}
}